{
  "address": "0xeA2Df57F2020F05AC7D0618C01192558A44b1995",
  "abi": [
    {
      "inputs": [],
      "stateMutability": "nonpayable",
      "type": "constructor"
    },
    {
      "inputs": [
        {
          "internalType": "address",
          "name": "spender",
          "type": "address"
        },
        {
          "internalType": "uint256",
          "name": "allowance",
          "type": "uint256"
        },
        {
          "internalType": "uint256",
          "name": "needed",
          "type": "uint256"
        }
      ],
      "name": "ERC20InsufficientAllowance",
      "type": "error"
    },
    {
      "inputs": [
        {
          "internalType": "address",
          "name": "sender",
          "type": "address"
        },
        {
          "internalType": "uint256",
          "name": "balance",
          "type": "uint256"
        },
        {
          "internalType": "uint256",
          "name": "needed",
          "type": "uint256"
        }
      ],
      "name": "ERC20InsufficientBalance",
      "type": "error"
    },
    {
      "inputs": [
        {
          "internalType": "address",
          "name": "approver",
          "type": "address"
        }
      ],
      "name": "ERC20InvalidApprover",
      "type": "error"
    },
    {
      "inputs": [
        {
          "internalType": "address",
          "name": "receiver",
          "type": "address"
        }
      ],
      "name": "ERC20InvalidReceiver",
      "type": "error"
    },
    {
      "inputs": [
        {
          "internalType": "address",
          "name": "sender",
          "type": "address"
        }
      ],
      "name": "ERC20InvalidSender",
      "type": "error"
    },
    {
      "inputs": [
        {
          "internalType": "address",
          "name": "spender",
          "type": "address"
        }
      ],
      "name": "ERC20InvalidSpender",
      "type": "error"
    },
    {
      "anonymous": false,
      "inputs": [
        {
          "indexed": true,
          "internalType": "address",
          "name": "owner",
          "type": "address"
        },
        {
          "indexed": true,
          "internalType": "address",
          "name": "spender",
          "type": "address"
        },
        {
          "indexed": false,
          "internalType": "uint256",
          "name": "value",
          "type": "uint256"
        }
      ],
      "name": "Approval",
      "type": "event"
    },
    {
      "anonymous": false,
      "inputs": [
        {
          "indexed": true,
          "internalType": "address",
          "name": "from",
          "type": "address"
        },
        {
          "indexed": true,
          "internalType": "address",
          "name": "to",
          "type": "address"
        },
        {
          "indexed": false,
          "internalType": "uint256",
          "name": "value",
          "type": "uint256"
        }
      ],
      "name": "Transfer",
      "type": "event"
    },
    {
      "inputs": [
        {
          "internalType": "address",
          "name": "owner",
          "type": "address"
        },
        {
          "internalType": "address",
          "name": "spender",
          "type": "address"
        }
      ],
      "name": "allowance",
      "outputs": [
        {
          "internalType": "uint256",
          "name": "",
          "type": "uint256"
        }
      ],
      "stateMutability": "view",
      "type": "function"
    },
    {
      "inputs": [
        {
          "internalType": "address",
          "name": "spender",
          "type": "address"
        },
        {
          "internalType": "uint256",
          "name": "value",
          "type": "uint256"
        }
      ],
      "name": "approve",
      "outputs": [
        {
          "internalType": "bool",
          "name": "",
          "type": "bool"
        }
      ],
      "stateMutability": "nonpayable",
      "type": "function"
    },
    {
      "inputs": [
        {
          "internalType": "address",
          "name": "account",
          "type": "address"
        }
      ],
      "name": "balanceOf",
      "outputs": [
        {
          "internalType": "uint256",
          "name": "",
          "type": "uint256"
        }
      ],
      "stateMutability": "view",
      "type": "function"
    },
    {
      "inputs": [],
      "name": "decimals",
      "outputs": [
        {
          "internalType": "uint8",
          "name": "",
          "type": "uint8"
        }
      ],
      "stateMutability": "view",
      "type": "function"
    },
    {
      "inputs": [],
      "name": "mintToken",
      "outputs": [],
      "stateMutability": "nonpayable",
      "type": "function"
    },
    {
      "inputs": [],
      "name": "name",
      "outputs": [
        {
          "internalType": "string",
          "name": "",
          "type": "string"
        }
      ],
      "stateMutability": "view",
      "type": "function"
    },
    {
      "inputs": [],
      "name": "symbol",
      "outputs": [
        {
          "internalType": "string",
          "name": "",
          "type": "string"
        }
      ],
      "stateMutability": "view",
      "type": "function"
    },
    {
      "inputs": [],
      "name": "totalSupply",
      "outputs": [
        {
          "internalType": "uint256",
          "name": "",
          "type": "uint256"
        }
      ],
      "stateMutability": "view",
      "type": "function"
    },
    {
      "inputs": [
        {
          "internalType": "address",
          "name": "to",
          "type": "address"
        },
        {
          "internalType": "uint256",
          "name": "value",
          "type": "uint256"
        }
      ],
      "name": "transfer",
      "outputs": [
        {
          "internalType": "bool",
          "name": "",
          "type": "bool"
        }
      ],
      "stateMutability": "nonpayable",
      "type": "function"
    },
    {
      "inputs": [
        {
          "internalType": "address",
          "name": "from",
          "type": "address"
        },
        {
          "internalType": "address",
          "name": "to",
          "type": "address"
        },
        {
          "internalType": "uint256",
          "name": "value",
          "type": "uint256"
        }
      ],
      "name": "transferFrom",
      "outputs": [
        {
          "internalType": "bool",
          "name": "",
          "type": "bool"
        }
      ],
      "stateMutability": "nonpayable",
      "type": "function"
    }
  ],
  "transactionHash": "0x209fc7c62b006b4aff921ad36309b058cef1d118f458c16d85c30fdb74330b7c",
  "args": [],
  "numDeployments": 1,
  "solcInputHash": "897a9f57b9b8ee0da70be31c2124b833",
  "bytecode": "0x6080346200030c576040906001600160401b0390808301828111828210176200020c578352600781526020916626bcaa37b5b2b760c91b838301528351848101818110838211176200020c5785526003908181526213565560ea1b858201528351908382116200020c578254916001958684811c9416801562000301575b88851014620002eb578190601f9485811162000295575b5088908583116001146200022e5760009262000222575b505060001982861b1c191690861b1783555b80519384116200020c5760049586548681811c9116801562000201575b82821014620001ec57838111620001a1575b508092851160011462000133575093839491849260009562000127575b50501b92600019911b1c19161790555b516109289081620003128239f35b01519350388062000109565b92919084601f1981168860005285600020956000905b898383106200018657505050106200016b575b50505050811b01905562000119565b01519060f884600019921b161c19169055388080806200015c565b85870151895590970196948501948893509081019062000149565b87600052816000208480880160051c820192848910620001e2575b0160051c019087905b828110620001d5575050620000ec565b60008155018790620001c5565b92508192620001bc565b602288634e487b7160e01b6000525260246000fd5b90607f1690620000da565b634e487b7160e01b600052604160045260246000fd5b015190503880620000ab565b90889350601f19831691876000528a6000209260005b8c8282106200027e575050841162000265575b505050811b018355620000bd565b015160001983881b60f8161c1916905538808062000257565b8385015186558c9790950194938401930162000244565b90915085600052886000208580850160051c8201928b8610620002e1575b918a91869594930160051c01915b828110620002d157505062000094565b600081558594508a9101620002c1565b92508192620002b3565b634e487b7160e01b600052602260045260246000fd5b93607f16936200007d565b600080fdfe608060408181526004918236101561001657600080fd5b600092833560e01c91826306fdde031461063a57508163095ea7b31461055357816318160ddd146105345781632004ffd91461046457816323b872dd146102f8578163313ce567146102dc57816370a082311461029957816395d89b411461011b57508063a9059cbb146100eb5763dd62ed3e1461009357600080fd5b346100e757806003193601126100e757806020926100af610766565b6100b761078e565b73ffffffffffffffffffffffffffffffffffffffff91821683526001865283832091168252845220549051908152f35b5080fd5b50346100e757806003193601126100e75760209061011461010a610766565b60243590336107b1565b5160018152f35b8383346100e757816003193601126100e757805190828454600181811c9080831692831561028f575b602093848410811461026357838852879594939291811561022657506001146101c8575b50505003601f01601f191682019267ffffffffffffffff84118385101761019c575082918261019892528261071e565b0390f35b806041867f4e487b71000000000000000000000000000000000000000000000000000000006024945252fd5b8888529193925086917f8a35acfbc15ff81a39ae7d344fd709f28e8600b4aa8c65c6b64bfe7fe36bd19b5b8284106102105750505090601f1992601f92820101918193610168565b80548885018701528794509285019281016101f3565b7fffffffffffffffffffffffffffffffffffffffffffffffffffffffffffffff0016848701525050151560051b830101905081601f601f19610168565b60248960228c7f4e487b7100000000000000000000000000000000000000000000000000000000835252fd5b91607f1691610144565b5050346100e75760206003193601126100e7578060209273ffffffffffffffffffffffffffffffffffffffff6102cd610766565b16815280845220549051908152f35b5050346100e757816003193601126100e7576020905160128152f35b9050823461046157606060031936011261046157610314610766565b61031c61078e565b916044359373ffffffffffffffffffffffffffffffffffffffff8316808352600160205286832033845260205286832054917fffffffffffffffffffffffffffffffffffffffffffffffffffffffffffffffff8303610384575b6020886101148989896107b1565b86831061041c5781156103ed5733156103be5750825260016020908152868320338452815291869020908590039055829061011487610376565b602490848951917f94280d62000000000000000000000000000000000000000000000000000000008352820152fd5b602490848951917fe602df05000000000000000000000000000000000000000000000000000000008352820152fd5b87517ffb8f41b2000000000000000000000000000000000000000000000000000000008152339181019182526020820193909352604081018790528291506060010390fd5b80fd5b91905034610530578260031936011261053057331561050257600254678ac7230489e80000928382018092116104d657506002553383528260205280832082815401905551908152817fddf252ad1be2c89b69c2b068fc378daa952ba7f163c4a11628f55a4df523b3ef60203393a380f35b8460116024927f4e487b7100000000000000000000000000000000000000000000000000000000835252fd5b9160249251917fec442f05000000000000000000000000000000000000000000000000000000008352820152fd5b8280fd5b5050346100e757816003193601126100e7576020906002549051908152f35b90503461053057816003193601126105305761056d610766565b60243590331561060b5773ffffffffffffffffffffffffffffffffffffffff169182156105dc57508083602095338152600187528181208582528752205582519081527f8c5be1e5ebec7d5bd14f71427d1e84f3dd0314c0f7b2291e5b200ac8c7c3b925843392a35160018152f35b602490858551917f94280d62000000000000000000000000000000000000000000000000000000008352820152fd5b602483868651917fe602df05000000000000000000000000000000000000000000000000000000008352820152fd5b8490843461053057826003193601126105305782600354600181811c90808316928315610714575b602093848410811461026357838852879594939291811561022657506001146106b55750505003601f01601f191682019267ffffffffffffffff84118385101761019c575082918261019892528261071e565b600388529193925086917fc2575a0e9e593c00f959f8c92f12db2869c3395a3b0502d05e2516446f71f85b5b8284106106fe5750505090601f1992601f92820101918193610168565b80548885018701528794509285019281016106e1565b91607f1691610662565b60208082528251818301819052939260005b85811061075257505050601f19601f8460006040809697860101520116010190565b818101830151848201604001528201610730565b6004359073ffffffffffffffffffffffffffffffffffffffff8216820361078957565b600080fd5b6024359073ffffffffffffffffffffffffffffffffffffffff8216820361078957565b9173ffffffffffffffffffffffffffffffffffffffff8084169283156108c157169283156108905760009083825281602052604082205490838210610838575091604082827fddf252ad1be2c89b69c2b068fc378daa952ba7f163c4a11628f55a4df523b3ef958760209652828652038282205586815220818154019055604051908152a3565b6040517fe450d38c00000000000000000000000000000000000000000000000000000000815273ffffffffffffffffffffffffffffffffffffffff919091166004820152602481019190915260448101839052606490fd5b60246040517fec442f0500000000000000000000000000000000000000000000000000000000815260006004820152fd5b60246040517f96c6fd1e00000000000000000000000000000000000000000000000000000000815260006004820152fdfea2646970667358221220bc312b8fd73f3ae28e1a581d1f09b9660b2aa075db012be9ee3f5a4a55f0f0fb64736f6c63430008140033",
  "devdoc": {
    "errors": {
      "ERC20InsufficientAllowance(address,uint256,uint256)": [
        {
          "details": "Indicates a failure with the `spender`s `allowance`. Used in transfers.",
          "params": {
            "allowance": "Amount of tokens a `spender` is allowed to operate with.",
            "needed": "Minimum amount required to perform a transfer.",
            "spender": "Address that may be allowed to operate on tokens without being their owner."
          }
        }
      ],
      "ERC20InsufficientBalance(address,uint256,uint256)": [
        {
          "details": "Indicates an error related to the current `balance` of a `sender`. Used in transfers.",
          "params": {
            "balance": "Current balance for the interacting account.",
            "needed": "Minimum amount required to perform a transfer.",
            "sender": "Address whose tokens are being transferred."
          }
        }
      ],
      "ERC20InvalidApprover(address)": [
        {
          "details": "Indicates a failure with the `approver` of a token to be approved. Used in approvals.",
          "params": {
            "approver": "Address initiating an approval operation."
          }
        }
      ],
      "ERC20InvalidReceiver(address)": [
        {
          "details": "Indicates a failure with the token `receiver`. Used in transfers.",
          "params": {
            "receiver": "Address to which tokens are being transferred."
          }
        }
      ],
      "ERC20InvalidSender(address)": [
        {
          "details": "Indicates a failure with the token `sender`. Used in transfers.",
          "params": {
            "sender": "Address whose tokens are being transferred."
          }
        }
      ],
      "ERC20InvalidSpender(address)": [
        {
          "details": "Indicates a failure with the `spender` to be approved. Used in approvals.",
          "params": {
            "spender": "Address that may be allowed to operate on tokens without being their owner."
          }
        }
      ]
    },
    "events": {
      "Approval(address,address,uint256)": {
        "details": "Emitted when the allowance of a `spender` for an `owner` is set by a call to {approve}. `value` is the new allowance."
      },
      "Transfer(address,address,uint256)": {
        "details": "Emitted when `value` tokens are moved from one account (`from`) to another (`to`). Note that `value` may be zero."
      }
    },
    "kind": "dev",
    "methods": {
      "allowance(address,address)": {
        "details": "See {IERC20-allowance}."
      },
      "approve(address,uint256)": {
        "details": "See {IERC20-approve}. NOTE: If `value` is the maximum `uint256`, the allowance is not updated on `transferFrom`. This is semantically equivalent to an infinite approval. Requirements: - `spender` cannot be the zero address."
      },
      "balanceOf(address)": {
        "details": "See {IERC20-balanceOf}."
      },
      "decimals()": {
        "details": "Returns the number of decimals used to get its user representation. For example, if `decimals` equals `2`, a balance of `505` tokens should be displayed to a user as `5.05` (`505 / 10 ** 2`). Tokens usually opt for a value of 18, imitating the relationship between Ether and Wei. This is the default value returned by this function, unless it's overridden. NOTE: This information is only used for _display_ purposes: it in no way affects any of the arithmetic of the contract, including {IERC20-balanceOf} and {IERC20-transfer}."
      },
      "name()": {
        "details": "Returns the name of the token."
      },
      "symbol()": {
        "details": "Returns the symbol of the token, usually a shorter version of the name."
      },
      "totalSupply()": {
        "details": "See {IERC20-totalSupply}."
      },
      "transfer(address,uint256)": {
        "details": "See {IERC20-transfer}. Requirements: - `to` cannot be the zero address. - the caller must have a balance of at least `value`."
      },
      "transferFrom(address,address,uint256)": {
        "details": "See {IERC20-transferFrom}. Emits an {Approval} event indicating the updated allowance. This is not required by the EIP. See the note at the beginning of {ERC20}. NOTE: Does not update the allowance if the current allowance is the maximum `uint256`. Requirements: - `from` and `to` cannot be the zero address. - `from` must have a balance of at least `value`. - the caller must have allowance for ``from``'s tokens of at least `value`."
      }
    },
    "version": 1
  },
  "userdoc": {
    "kind": "user",
    "methods": {},
    "version": 1
  },
  "storageLayout": {
    "storage": [
      {
        "astId": 2610,
        "contract": "contracts/test/MyERC20.sol:MyERC20",
        "label": "_balances",
        "offset": 0,
        "slot": "0",
        "type": "t_mapping(t_address,t_uint256)"
      },
      {
        "astId": 2616,
        "contract": "contracts/test/MyERC20.sol:MyERC20",
        "label": "_allowances",
        "offset": 0,
        "slot": "1",
        "type": "t_mapping(t_address,t_mapping(t_address,t_uint256))"
      },
      {
        "astId": 2618,
        "contract": "contracts/test/MyERC20.sol:MyERC20",
        "label": "_totalSupply",
        "offset": 0,
        "slot": "2",
        "type": "t_uint256"
      },
      {
        "astId": 2620,
        "contract": "contracts/test/MyERC20.sol:MyERC20",
        "label": "_name",
        "offset": 0,
        "slot": "3",
        "type": "t_string_storage"
      },
      {
        "astId": 2622,
        "contract": "contracts/test/MyERC20.sol:MyERC20",
        "label": "_symbol",
        "offset": 0,
        "slot": "4",
        "type": "t_string_storage"
      },
      {
        "astId": 6790,
        "contract": "contracts/test/MyERC20.sol:MyERC20",
        "label": "tokenCounter",
        "offset": 0,
        "slot": "5",
        "type": "t_uint256"
      }
    ],
    "types": {
      "t_address": {
        "encoding": "inplace",
        "label": "address",
        "numberOfBytes": "20"
      },
      "t_mapping(t_address,t_mapping(t_address,t_uint256))": {
        "encoding": "mapping",
        "key": "t_address",
        "label": "mapping(address => mapping(address => uint256))",
        "numberOfBytes": "32",
        "value": "t_mapping(t_address,t_uint256)"
      },
      "t_mapping(t_address,t_uint256)": {
        "encoding": "mapping",
        "key": "t_address",
        "label": "mapping(address => uint256)",
        "numberOfBytes": "32",
        "value": "t_uint256"
      },
      "t_string_storage": {
        "encoding": "bytes",
        "label": "string",
        "numberOfBytes": "32"
      },
      "t_uint256": {
        "encoding": "inplace",
        "label": "uint256",
        "numberOfBytes": "32"
      }
    }
  }
}