{
  "address": "0x288BdC7BAE484D6018B9d151407f3813f1eBB205",
  "abi": [
    {
      "inputs": [
        {
          "internalType": "uint256",
          "name": "_identity",
          "type": "uint256"
        },
        {
          "internalType": "address[]",
          "name": "_inheritableTokens",
          "type": "address[]"
        },
        {
          "internalType": "address",
          "name": "_functionsRouter",
          "type": "address"
        },
        {
          "internalType": "uint64",
          "name": "_subscriptionId",
          "type": "uint64"
        },
        {
          "internalType": "uint32",
          "name": "_gasLimit",
          "type": "uint32"
        },
        {
          "internalType": "bytes32",
          "name": "_donID",
          "type": "bytes32"
        }
      ],
      "stateMutability": "nonpayable",
      "type": "constructor"
    },
    {
      "inputs": [],
      "name": "EmptyArgs",
      "type": "error"
    },
    {
      "inputs": [],
      "name": "EmptySource",
      "type": "error"
    },
    {
      "inputs": [],
      "name": "InvalidArrayLength",
      "type": "error"
    },
    {
      "inputs": [],
      "name": "InvalidSharesInput",
      "type": "error"
    },
    {
      "inputs": [],
      "name": "InvalidTokenId",
      "type": "error"
    },
    {
      "inputs": [],
      "name": "NoInlineSecrets",
      "type": "error"
    },
    {
      "inputs": [],
      "name": "OnlyRouterCanFulfill",
      "type": "error"
    },
    {
      "inputs": [
        {
          "internalType": "address",
          "name": "owner",
          "type": "address"
        }
      ],
      "name": "OwnableInvalidOwner",
      "type": "error"
    },
    {
      "inputs": [
        {
          "internalType": "address",
          "name": "account",
          "type": "address"
        }
      ],
      "name": "OwnableUnauthorizedAccount",
      "type": "error"
    },
    {
      "inputs": [],
      "name": "UnexpectedRequest",
      "type": "error"
    },
    {
      "anonymous": false,
      "inputs": [
        {
          "indexed": true,
          "internalType": "address",
          "name": "previousOwner",
          "type": "address"
        },
        {
          "indexed": true,
          "internalType": "address",
          "name": "newOwner",
          "type": "address"
        }
      ],
      "name": "OwnershipTransferred",
      "type": "event"
    },
    {
      "anonymous": false,
      "inputs": [
        {
          "indexed": true,
          "internalType": "bytes32",
          "name": "id",
          "type": "bytes32"
        }
      ],
      "name": "RequestFulfilled",
      "type": "event"
    },
    {
      "anonymous": false,
      "inputs": [
        {
          "indexed": true,
          "internalType": "bytes32",
          "name": "id",
          "type": "bytes32"
        }
      ],
      "name": "RequestSent",
      "type": "event"
    },
    {
      "inputs": [
        {
          "internalType": "address[]",
          "name": "_heirs",
          "type": "address[]"
        },
        {
          "internalType": "uint256[]",
          "name": "_shares",
          "type": "uint256[]"
        }
      ],
      "name": "addHeirForERC20",
      "outputs": [],
      "stateMutability": "nonpayable",
      "type": "function"
    },
    {
      "inputs": [
        {
          "internalType": "address",
          "name": "_heir",
          "type": "address"
        },
        {
          "internalType": "address",
          "name": "_nft",
          "type": "address"
        },
        {
          "internalType": "uint256",
          "name": "_tokenId",
          "type": "uint256"
        }
      ],
      "name": "addHeirForERC721",
      "outputs": [],
      "stateMutability": "nonpayable",
      "type": "function"
    },
    {
      "inputs": [
        {
          "internalType": "bytes",
          "name": "",
          "type": "bytes"
        }
      ],
      "name": "checkUpkeep",
      "outputs": [
        {
          "internalType": "bool",
          "name": "upkeepNeeded",
          "type": "bool"
        },
        {
          "internalType": "bytes",
          "name": "",
          "type": "bytes"
        }
      ],
      "stateMutability": "view",
      "type": "function"
    },
    {
      "inputs": [],
      "name": "donID",
      "outputs": [
        {
          "internalType": "bytes32",
          "name": "",
          "type": "bytes32"
        }
      ],
      "stateMutability": "view",
      "type": "function"
    },
    {
      "inputs": [
        {
          "internalType": "uint256",
          "name": "",
          "type": "uint256"
        }
      ],
      "name": "erc20Heirs",
      "outputs": [
        {
          "internalType": "address",
          "name": "heir",
          "type": "address"
        },
        {
          "internalType": "uint256",
          "name": "share",
          "type": "uint256"
        }
      ],
      "stateMutability": "view",
      "type": "function"
    },
    {
      "inputs": [
        {
          "internalType": "uint256",
          "name": "",
          "type": "uint256"
        }
      ],
      "name": "erc721Heirs",
      "outputs": [
        {
          "internalType": "address",
          "name": "nft",
          "type": "address"
        },
        {
          "internalType": "uint256",
          "name": "tokenId",
          "type": "uint256"
        },
        {
          "internalType": "address",
          "name": "heir",
          "type": "address"
        }
      ],
      "stateMutability": "view",
      "type": "function"
    },
    {
      "inputs": [
        {
          "internalType": "address",
          "name": "nft",
          "type": "address"
        },
        {
          "internalType": "uint256",
          "name": "tokenId",
          "type": "uint256"
        }
      ],
      "name": "erc721Inheritances",
      "outputs": [
        {
          "internalType": "address",
          "name": "heir",
          "type": "address"
        }
      ],
      "stateMutability": "view",
      "type": "function"
    },
    {
      "inputs": [],
      "name": "functionsRouter",
      "outputs": [
        {
          "internalType": "address",
          "name": "",
          "type": "address"
        }
      ],
      "stateMutability": "view",
      "type": "function"
    },
    {
      "inputs": [],
      "name": "gasLimit",
      "outputs": [
        {
          "internalType": "uint32",
          "name": "",
          "type": "uint32"
        }
      ],
      "stateMutability": "view",
      "type": "function"
    },
    {
      "inputs": [
        {
          "internalType": "uint256",
          "name": "_index",
          "type": "uint256"
        }
      ],
      "name": "getHeirForERC20",
      "outputs": [
        {
          "internalType": "address",
          "name": "",
          "type": "address"
        }
      ],
      "stateMutability": "view",
      "type": "function"
    },
    {
      "inputs": [
        {
          "internalType": "uint256",
          "name": "_index",
          "type": "uint256"
        }
      ],
      "name": "getHeirForERC721",
      "outputs": [
        {
          "internalType": "address",
          "name": "",
          "type": "address"
        }
      ],
      "stateMutability": "view",
      "type": "function"
    },
    {
      "inputs": [
        {
          "internalType": "uint256",
          "name": "_index",
          "type": "uint256"
        }
      ],
      "name": "getNftForERC721",
      "outputs": [
        {
          "internalType": "address",
          "name": "",
          "type": "address"
        }
      ],
      "stateMutability": "view",
      "type": "function"
    },
    {
      "inputs": [
        {
          "internalType": "uint256",
          "name": "_index",
          "type": "uint256"
        }
      ],
      "name": "getShareForERC20",
      "outputs": [
        {
          "internalType": "uint256",
          "name": "",
          "type": "uint256"
        }
      ],
      "stateMutability": "view",
      "type": "function"
    },
    {
      "inputs": [
        {
          "internalType": "uint256",
          "name": "_index",
          "type": "uint256"
        }
      ],
      "name": "getTokenIdForERC721",
      "outputs": [
        {
          "internalType": "uint256",
          "name": "",
          "type": "uint256"
        }
      ],
      "stateMutability": "view",
      "type": "function"
    },
    {
      "inputs": [
        {
          "internalType": "bytes32",
          "name": "requestId",
          "type": "bytes32"
        },
        {
          "internalType": "bytes",
          "name": "response",
          "type": "bytes"
        },
        {
          "internalType": "bytes",
          "name": "err",
          "type": "bytes"
        }
      ],
      "name": "handleOracleFulfillment",
      "outputs": [],
      "stateMutability": "nonpayable",
      "type": "function"
    },
    {
      "inputs": [],
      "name": "identity",
      "outputs": [
        {
          "internalType": "uint256",
          "name": "",
          "type": "uint256"
        }
      ],
      "stateMutability": "view",
      "type": "function"
    },
    {
      "inputs": [
        {
          "internalType": "uint256",
          "name": "",
          "type": "uint256"
        }
      ],
      "name": "inheritableTokens",
      "outputs": [
        {
          "internalType": "address",
          "name": "",
          "type": "address"
        }
      ],
      "stateMutability": "view",
      "type": "function"
    },
    {
      "inputs": [],
      "name": "isAlive",
      "outputs": [
        {
          "internalType": "bool",
          "name": "",
          "type": "bool"
        }
      ],
      "stateMutability": "view",
      "type": "function"
    },
    {
      "inputs": [],
      "name": "lastError",
      "outputs": [
        {
          "internalType": "string",
          "name": "",
          "type": "string"
        }
      ],
      "stateMutability": "view",
      "type": "function"
    },
    {
      "inputs": [],
      "name": "lastRequestId",
      "outputs": [
        {
          "internalType": "bytes32",
          "name": "",
          "type": "bytes32"
        }
      ],
      "stateMutability": "view",
      "type": "function"
    },
    {
      "inputs": [],
      "name": "lastResponse",
      "outputs": [
        {
          "internalType": "string",
          "name": "",
          "type": "string"
        }
      ],
      "stateMutability": "view",
      "type": "function"
    },
    {
      "inputs": [],
      "name": "latestTimestamp",
      "outputs": [
        {
          "internalType": "uint256",
          "name": "",
          "type": "uint256"
        }
      ],
      "stateMutability": "view",
      "type": "function"
    },
    {
      "inputs": [],
      "name": "owner",
      "outputs": [
        {
          "internalType": "address",
          "name": "",
          "type": "address"
        }
      ],
      "stateMutability": "view",
      "type": "function"
    },
    {
      "inputs": [
        {
          "internalType": "bytes",
          "name": "",
          "type": "bytes"
        }
      ],
      "name": "performUpkeep",
      "outputs": [],
      "stateMutability": "nonpayable",
      "type": "function"
    },
    {
      "inputs": [
        {
          "internalType": "uint256",
          "name": "_index",
          "type": "uint256"
        }
      ],
      "name": "removeERC20HeirIndex",
      "outputs": [],
      "stateMutability": "nonpayable",
      "type": "function"
    },
    {
      "inputs": [
        {
          "internalType": "uint256",
          "name": "_index",
          "type": "uint256"
        }
      ],
      "name": "removeERC721HeirIndex",
      "outputs": [],
      "stateMutability": "nonpayable",
      "type": "function"
    },
    {
      "inputs": [
        {
          "internalType": "address[]",
          "name": "_heirs",
          "type": "address[]"
        }
      ],
      "name": "removeHeirForERC20",
      "outputs": [],
      "stateMutability": "nonpayable",
      "type": "function"
    },
    {
      "inputs": [
        {
          "internalType": "address",
          "name": "_nft",
          "type": "address"
        },
        {
          "internalType": "uint256",
          "name": "_tokenId",
          "type": "uint256"
        }
      ],
      "name": "removeHeirForERC721",
      "outputs": [],
      "stateMutability": "nonpayable",
      "type": "function"
    },
    {
      "inputs": [],
      "name": "renounceOwnership",
      "outputs": [],
      "stateMutability": "nonpayable",
      "type": "function"
    },
    {
      "inputs": [],
      "name": "requestCounter",
      "outputs": [
        {
          "internalType": "uint256",
          "name": "",
          "type": "uint256"
        }
      ],
      "stateMutability": "view",
      "type": "function"
    },
    {
      "inputs": [],
      "name": "requestData",
      "outputs": [],
      "stateMutability": "nonpayable",
      "type": "function"
    },
    {
      "inputs": [
        {
          "internalType": "address",
          "name": "heir",
          "type": "address"
        }
      ],
      "name": "shares",
      "outputs": [
        {
          "internalType": "uint256",
          "name": "share",
          "type": "uint256"
        }
      ],
      "stateMutability": "view",
      "type": "function"
    },
    {
      "inputs": [],
      "name": "source",
      "outputs": [
        {
          "internalType": "string",
          "name": "",
          "type": "string"
        }
      ],
      "stateMutability": "view",
      "type": "function"
    },
    {
      "inputs": [],
      "name": "subscriptionId",
      "outputs": [
        {
          "internalType": "uint64",
          "name": "",
          "type": "uint64"
        }
      ],
      "stateMutability": "view",
      "type": "function"
    },
    {
      "inputs": [],
      "name": "timeInterval",
      "outputs": [
        {
          "internalType": "uint256",
          "name": "",
          "type": "uint256"
        }
      ],
      "stateMutability": "view",
      "type": "function"
    },
    {
      "inputs": [],
      "name": "totalShares",
      "outputs": [
        {
          "internalType": "uint256",
          "name": "",
          "type": "uint256"
        }
      ],
      "stateMutability": "view",
      "type": "function"
    },
    {
      "inputs": [
        {
          "internalType": "address",
          "name": "newOwner",
          "type": "address"
        }
      ],
      "name": "transferOwnership",
      "outputs": [],
      "stateMutability": "nonpayable",
      "type": "function"
    }
  ],
  "transactionHash": "0x4dd29ed1ec00c72a89a5cdb7f540dc134ca0ce5298441cffef12dd5d6ab7b569",
  "args": [
    "777",
    [
      "0xeA2Df57F2020F05AC7D0618C01192558A44b1995"
    ],
    "0xb83E47C2bC239B3bf370bc41e1459A34b41238D0",
    "1863",
    "300000",
    "0x66756e2d657468657265756d2d7365706f6c69612d3100000000000000000000"
  ],
  "numDeployments": 1,
  "solcInputHash": "897a9f57b9b8ee0da70be31c2124b833",
  "bytecode": "0x60c060405234620003695762003b78803803806200001d816200039f565b92833981019060c08183031262000369578051602080830151919290916001600160401b03908181116200036957820185601f82011215620003695780519582871162000389578660051b9185620000778185016200039f565b809981520190868294820101928311620003695786809101915b8383106200036e5750505050620000ab60408401620003c5565b91606084015192818416809403620003695760808501519463ffffffff86168603620003695760a0015195331562000350576000908154946040519a60018060a01b03809533828a167f8be0079c531659141344cd1fd0a4f28419497f9722a3daafe3b4186f6b6457e08880a31660808190526001600160a81b03199097163360ff60a01b191617600160a01b1784556078600255600a5460019b90808d1c908d16801562000345575b858210146200033157601f81116200030c575b50610107600a55600a85526265293b60e81b60048d7f6574206973416c697665203d202731273b6966202872657175657374436f756e878920917f636f6e73742072657175657374436f756e746572203d20617267735b315d3b6c83558201557f746572203d3d2027322729207b6973416c697665203d202730273b7d7265747560028201557f726e2046756e6374696f6e732e656e636f6465537472696e67286973416c69766003820155015560a05251948511620002f857680100000000000000008511620002f85760035485600355808610620002da575b50926003835289828420935b868110620002c5575050505050505060018060a01b031960095416176009556bffffffff0000000000000000600b549260401b169160018060601b0319161717600b55600c554290556137849081620003f482396080518181816104630152612057015260a051818181610e800152611f260152f35b838387511696019581860155018a906200024f565b60038452828420620002f1918101908701620003da565b3862000243565b634e487b7160e01b83526041600452602483fd5b6200032a90600a87526005601f8789209201811c82019101620003da565b3862000168565b634e487b7160e01b86526022600452602486fd5b90607f169062000155565b604051631e4fbdf760e01b815260006004820152602490fd5b600080fd5b81906200037b84620003c5565b815201910190869062000091565b634e487b7160e01b600052604160045260246000fd5b6040519190601f01601f191682016001600160401b038111838210176200038957604052565b51906001600160a01b03821682036200036957565b818110620003e6575050565b60008155600101620003da56fe6080604052600436101561001257600080fd5b60003560e01c8063089d84c81461026757806309c1ba2e146102625780630ca761751461025d5780630d468870146102585780630f64abed1461025357806319c20c071461024e57806329f0de3f146102495780632c159a1a146102445780632f72bb611461023f5780633a98ef391461023a5780634136aa35146102355780634585e33b14610230578063479ab63e1461022b578063509d08b014610226578063606deecd1461022157806362747e421461021c57806367e828bf146102175780636d0a5580146102125780636e04ff0d1461020d5780636e74336b14610208578063715018a6146102035780638205bf6a146101fe57806385b1c72d146101f95780638da5cb5b146101f45780638eff4cde146101ef5780638f516438146101ea57806392afbc6f146101e5578063973a814e146101e0578063ce7c2ac2146101db578063d58f05da146101d6578063d7f5d5a1146101d1578063ed59ef08146101cc578063f2fde38b146101c7578063f68016b7146101c2578063f94161b4146101bd578063fc2a88c3146101b85763fcfbe8ab146101b357600080fd5b61193a565b61191c565b6118b9565b611857565b61178f565b611735565b6116f4565b6116c0565b611675565b611657565b611624565b611606565b61159f565b611534565b61145f565b611441565b6113c2565b6113a4565b611335565b611315565b6112e5565b61123e565b611225565b611209565b6111b6565b61111e565b6110ae565b611090565b610f23565b610e68565b610d65565b610971565b610928565b6108ea565b6103fb565b610295565b3461028557602060031936011261028557610283600435613553565b005b600080fd5b600091031261028557565b3461028557600060031936011261028557602067ffffffffffffffff600b5416604051908152f35b7f4e487b7100000000000000000000000000000000000000000000000000000000600052604160045260246000fd5b67ffffffffffffffff811161030057604052565b6102bd565b60e0810190811067ffffffffffffffff82111761030057604052565b6040810190811067ffffffffffffffff82111761030057604052565b6060810190811067ffffffffffffffff82111761030057604052565b90601f601f19910116810190811067ffffffffffffffff82111761030057604052565b604051906103898261033d565b565b6040519061038982610321565b67ffffffffffffffff811161030057601f01601f191660200190565b81601f82011215610285578035906103cb82610398565b926103d96040519485610359565b8284526020838301011161028557816000926020809301838601378301015290565b3461028557606060031936011261028557600480359067ffffffffffffffff906024358281116102855761043290369083016103b4565b916044359081116102855761044a90369083016103b4565b73ffffffffffffffffffffffffffffffffffffffff90817f00000000000000000000000000000000000000000000000000000000000000001633036108c15784600e5403610898576104a49061049f8561326e565b613357565b82516020809401206104b4613440565b848151910120146104e8575b837f85e1543bf2f84fe80c6badbce3648c8539ad1df4d2b3d822938ca0538be727e6600080a2005b92916000935b60035485101561073c576105ba9061054761052e61052e61050e89611568565b905473ffffffffffffffffffffffffffffffffffffffff9160031b1c1690565b73ffffffffffffffffffffffffffffffffffffffff1690565b9061056760005473ffffffffffffffffffffffffffffffffffffffff1690565b95846040978851809681927f70a082310000000000000000000000000000000000000000000000000000000083528a830191909173ffffffffffffffffffffffffffffffffffffffff6020820193169052565b0381865afa9384156106ef5760009461070d575b5060005b6006548110156106f45760005473ffffffffffffffffffffffffffffffffffffffff16908661061e61060383611177565b505473ffffffffffffffffffffffffffffffffffffffff1690565b92896106a061064461063d600161063488611177565b5001548c612678565b6064900490565b8d5196879485947f23b872dd000000000000000000000000000000000000000000000000000000008652850160409194939294606082019573ffffffffffffffffffffffffffffffffffffffff80921683521660208201520152565b03816000895af19182156106ef576106bd926106c2575b50611c6b565b6105d2565b6106e190883d8a116106e8575b6106d98183610359565b810190613479565b50386106b7565b503d6106cf565b611dc3565b509691509294506107059150611c6b565b9392906104ee565b61072e919450853d8711610735575b6107268183610359565b810190611fc1565b92386105ce565b503d61071c565b93505060005b60085481101561085f5761075b61052e6106038361187e565b90610786600261076a8361187e565b50015473ffffffffffffffffffffffffffffffffffffffff1690565b918560016107938461187e565b5001549116906107b860005473ffffffffffffffffffffffffffffffffffffffff1690565b91803b15610285576108289460008094604051978895869485937f23b872dd0000000000000000000000000000000000000000000000000000000085528c850160409194939294606082019573ffffffffffffffffffffffffffffffffffffffff80921683521660208201520152565b03925af19182156106ef57610841926108465750611c6b565b610742565b80610853610859926102ec565b8061028a565b386106b7565b505090506108907fffffffffffffffffffffff00ffffffffffffffffffffffffffffffffffffffff60005416600055565b3880806104c0565b826040517f290274c9000000000000000000000000000000000000000000000000000000008152fd5b826040517fc6829f83000000000000000000000000000000000000000000000000000000008152fd5b3461028557602060031936011261028557602073ffffffffffffffffffffffffffffffffffffffff61091d60043561187e565b505416604051908152f35b346102855760206003193601126102855760206001610948600435611177565b500154604051908152f35b73ffffffffffffffffffffffffffffffffffffffff81160361028557565b346102855760606003193601126102855760043561098e81610953565b60243561099a81610953565b6044356109a56119dd565b6040517f6352211e0000000000000000000000000000000000000000000000000000000081526004810182905273ffffffffffffffffffffffffffffffffffffffff906020816024818786165afa9081156106ef57600091610b64575b508133911603610b3a57610a66610a4c83610a3d8673ffffffffffffffffffffffffffffffffffffffff166000526007602052604060002090565b90600052602052604060002090565b5473ffffffffffffffffffffffffffffffffffffffff1690565b848216911603610a7257005b8281610aec61028395610aac610b3595610a3d8873ffffffffffffffffffffffffffffffffffffffff166000526007602052604060002090565b9073ffffffffffffffffffffffffffffffffffffffff167fffffffffffffffffffffffff0000000000000000000000000000000000000000825416179055565b610b13610af761037c565b73ffffffffffffffffffffffffffffffffffffffff9095168552565b602084015273ffffffffffffffffffffffffffffffffffffffff166040830152565b611dcf565b60046040517f3f6cc768000000000000000000000000000000000000000000000000000000008152fd5b610b85915060203d8111610b8b575b610b7d8183610359565b810190611dae565b38610a02565b503d610b73565b7f4e487b7100000000000000000000000000000000000000000000000000000000600052600060045260246000fd5b90600182811c92168015610c0a575b6020831014610bdb57565b7f4e487b7100000000000000000000000000000000000000000000000000000000600052602260045260246000fd5b91607f1691610bd0565b60405190600082600a5491610c2883610bc1565b80835292600190818116908115610cae5750600114610c4f575b5061038992500383610359565b600a600090815291507fc65a7bb8d6351c1cf70c95a316cc6a92839c986682d98bc35f958f4883f9d2a85b848310610c935750610389935050810160200138610c42565b81935090816020925483858a01015201910190918592610c7a565b602093506103899592507fffffffffffffffffffffffffffffffffffffffffffffffffffffffffffffff0091501682840152151560051b82010138610c42565b60005b828110610d0057506000910152565b608081015182820152602001610cf1565b919082519283825260005b848110610d3d575050601f19601f8460006020809697860101520116010190565b602081830181015184830182015201610d1c565b906020610d62928181520190610d11565b90565b3461028557600080600319360112610e65576040519080601054610d8881610bc1565b80855291600191808316908115610e1d5750600114610dc2575b610dbe85610db281870382610359565b60405191829182610d51565b0390f35b9250601083527f1b6847dc741a1b0cd08d278845f9d819d87b734759afb55fe2de5cb82a9ae6725b828410610e05575050508101602001610db282610dbe610da2565b80546020858701810191909152909301928101610dea565b869550610dbe96935060209250610db29491507fffffffffffffffffffffffffffffffffffffffffffffffffffffffffffffff001682840152151560051b8201019293610da2565b80fd5b346102855760006003193601126102855760206040517f00000000000000000000000000000000000000000000000000000000000000008152f35b67ffffffffffffffff81116103005760051b60200190565b81601f8201121561028557803591610ed283610ea3565b92610ee06040519485610359565b808452602092838086019260051b820101928311610285578301905b828210610f0a575050505090565b8380918335610f1881610953565b815201910190610efc565b346102855760206003193601126102855760043567ffffffffffffffff811161028557610f54903690600401610ebb565b610f5c6119dd565b60005b8151811015610283576000610fba610f94610f7a8486611c97565b5173ffffffffffffffffffffffffffffffffffffffff1690565b73ffffffffffffffffffffffffffffffffffffffff166000526004602052604060002090565b55610fdf610fda610fd1610f94610f7a8587611c97565b54600554611cba565b600555565b610fe98251611d7d565b600654909260005b8281106110395750905060005b8351811015611028578061101e6110186110239387611c97565b51613553565b611c6b565b610ffe565b50915061103490611c6b565b610f5f565b8061104961060361107a93611177565b73ffffffffffffffffffffffffffffffffffffffff61106e61052e610f7a8988611c97565b91161461107f57611c6b565b610ff1565b8061108a8688611c97565b52611c6b565b34610285576000600319360112610285576020600554604051908152f35b3461028557600060031936011261028557602060ff60005460a01c166040519015158152f35b9060206003198301126102855760043567ffffffffffffffff9283821161028557806023830112156102855781600401359384116102855760248483010111610285576024019190565b346102855761112c366110d4565b5050611139600d54611c6b565b600d5542600155610283611ec6565b7f4e487b7100000000000000000000000000000000000000000000000000000000600052603260045260246000fd5b6006548110156111b157600660005260011b7ff652222313e28459528d920b65115c16c04f3efc82aaedc97be59f3f377c0d3f0190600090565b611148565b3461028557602060031936011261028557600435600654811015610285576111df604091611177565b50600173ffffffffffffffffffffffffffffffffffffffff82541691015482519182526020820152f35b3461028557602060031936011261028557610283600435613643565b3461028557600060031936011261028557610283611ec6565b3461028557600080600319360112610e65576040519080600f5461126181610bc1565b80855291600191808316908115610e1d575060011461128a57610dbe85610db281870382610359565b9250600f83527f8d1108e10bcb7c27dddfc02ed9d693a074039d026cf4ea4240b40f7d581ac8025b8284106112cd575050508101602001610db282610dbe610da2565b805460208587018101919091529093019281016112b2565b3461028557600060031936011261028557610dbe611301610c14565b604051918291602083526020830190610d11565b34610285576020600319360112610285576020600161094860043561187e565b3461028557611343366110d4565b505060ff60005460a01c1680611388575b604051901515815260406020820152606081601f19601f835180604085015261137f81868601610cee565b01168101030190f35b50600154420342811161139f576002541115611354565b611c3c565b34610285576000600319360112610285576020600c54604051908152f35b3461028557600080600319360112610e65576113dc6119dd565b8073ffffffffffffffffffffffffffffffffffffffff81547fffffffffffffffffffffffff000000000000000000000000000000000000000081168355167f8be0079c531659141344cd1fd0a4f28419497f9722a3daafe3b4186f6b6457e08280a380f35b34610285576000600319360112610285576020600154604051908152f35b346102855760406003193601126102855760043561147c81610953565b602435906114886119dd565b73ffffffffffffffffffffffffffffffffffffffff809116916000928084526007602052604084208285526020526114e5604085207fffffffffffffffffffffffff00000000000000000000000000000000000000008154169055565b835b6008548110156115305780828561150361060361150e9561187e565b161461151357611c6b565b6114e7565b83600161151f8361187e565b50015403611c6b5761101e81613643565b8480f35b3461028557600060031936011261028557602073ffffffffffffffffffffffffffffffffffffffff60005416604051908152f35b6003548110156111b15760036000527fc2575a0e9e593c00f959f8c92f12db2869c3395a3b0502d05e2516446f71f85b0190600090565b34610285576020600319360112610285576004356003548110156102855773ffffffffffffffffffffffffffffffffffffffff60209160036000527fc2575a0e9e593c00f959f8c92f12db2869c3395a3b0502d05e2516446f71f85b015416604051908152f35b34610285576000600319360112610285576020600254604051908152f35b3461028557602060031936011261028557602073ffffffffffffffffffffffffffffffffffffffff61091d600435611177565b34610285576000600319360112610285576020600d54604051908152f35b346102855760206003193601126102855773ffffffffffffffffffffffffffffffffffffffff6004356116a781610953565b1660005260046020526020604060002054604051908152f35b3461028557600060031936011261028557602073ffffffffffffffffffffffffffffffffffffffff60095416604051908152f35b3461028557602060031936011261028557602073ffffffffffffffffffffffffffffffffffffffff600261172960043561187e565b50015416604051908152f35b3461028557604060031936011261028557602060043561175481610953565b73ffffffffffffffffffffffffffffffffffffffff809116600052600782526040600020602435600052825260406000205416604051908152f35b34610285576020600319360112610285576004356117ac81610953565b6117b46119dd565b73ffffffffffffffffffffffffffffffffffffffff8091168015611826576000918254827fffffffffffffffffffffffff00000000000000000000000000000000000000008216178455167f8be0079c531659141344cd1fd0a4f28419497f9722a3daafe3b4186f6b6457e08380a380f35b60246040517f1e4fbdf700000000000000000000000000000000000000000000000000000000815260006004820152fd5b34610285576000600319360112610285576020600b5463ffffffff6040519160401c168152f35b6008548110156111b1576003906008600052027ff3f7a9fe364faab93b216da50a3214154f22a0a2b415b23a84c8169e8b636ee30190600090565b3461028557602060031936011261028557600435600854811015610285576118e260609161187e565b5073ffffffffffffffffffffffffffffffffffffffff90818154169160026001830154920154169060405192835260208301526040820152f35b34610285576000600319360112610285576020600e54604051908152f35b346102855760406003193601126102855767ffffffffffffffff6004358181116102855761196c903690600401610ebb565b90602435908111610285573660238201121561028557806004013561199081610ea3565b9161199e6040519384610359565b81835260209160248385019160051b8301019136831161028557602401905b8282106119ce576102838587611a2e565b813581529083019083016119bd565b73ffffffffffffffffffffffffffffffffffffffff6000541633036119fe57565b60246040517f118cdaa7000000000000000000000000000000000000000000000000000000008152336004820152fd5b919091611a396119dd565b8051835103611c125760055460005b8251811015611ae2576064611a81611a70611a69610f94610f7a8689611c97565b5485611cba565b611a7a8489611c97565b5190611cd5565b1115611ab15760046040517f3e996863000000000000000000000000000000000000000000000000000000008152fd5b8061101e610fda611ac5611add9489611c97565b51611ad6610f94610f7a868a611c97565b5490611cba565b611a48565b505090916000905b8251821015611c0d57611afd8282611c97565b51611b0e610f94610f7a8587611c97565b55600093845b600654811015611bc557611b2a61060382611177565b73ffffffffffffffffffffffffffffffffffffffff611b4f61052e610f7a888a611c97565b911614611b65575b611b6090611c6b565b611b14565b9450611bbd611b77610f7a8587611c97565b611b818585611c97565b51611ba9611b8d61038b565b73ffffffffffffffffffffffffffffffffffffffff9093168352565b6020820152611bb787611177565b90611ce2565b600194611b57565b5091611bd6919415611bdd57611c6b565b9092611aea565b61101e611bed610f7a8387611c97565b611bf78388611c97565b51611c03611b8d61038b565b6020820152611d55565b505050565b60046040517f9d89020a000000000000000000000000000000000000000000000000000000008152fd5b7f4e487b7100000000000000000000000000000000000000000000000000000000600052601160045260246000fd5b600019811461139f5760010190565b8051156111b15760200190565b8051600110156111b15760400190565b80518210156111b15760209160051b010190565b90601f19820191821161139f57565b9190820391821161139f57565b906020820180921161139f57565b9190820180921161139f57565b9190611d5057602081611d4973ffffffffffffffffffffffffffffffffffffffff6001945116859073ffffffffffffffffffffffffffffffffffffffff167fffffffffffffffffffffffff0000000000000000000000000000000000000000825416179055565b0151910155565b610b92565b600654906801000000000000000082101561030057611bb78260016103899401600655611177565b90611d8782610ea3565b611d946040519182610359565b828152601f19611da48294610ea3565b0190602036910137565b908160209103126102855751610d6281610953565b6040513d6000823e3d90fd5b6008546801000000000000000081101561030057806001611df3920160085561187e565b611d5057815181547fffffffffffffffffffffffff00000000000000000000000000000000000000001673ffffffffffffffffffffffffffffffffffffffff91821617825561038992600291906040906020810151600186015501511691019073ffffffffffffffffffffffffffffffffffffffff167fffffffffffffffffffffffff0000000000000000000000000000000000000000825416179055565b604090815191611ea18361033d565b600283528260005b828110611eb557505050565b806060602080938501015201611ea9565b610389611fac611f8a604051611edb81610305565b60008152600060208201526000604082015260608082015260606080820152606060a0820152606060c0820152611f19611f13610c14565b8261248d565b611f21611e92565b611f4a7f000000000000000000000000000000000000000000000000000000000000000061303c565b611f5382611c7a565b52611f5d81611c7a565b50611f69600d5461303c565b611f7282611c87565b52611f7c81611c87565b508051611fb1575b506122a7565b600b54600c549167ffffffffffffffff63ffffffff8360401c16921690611fd0565b600e55565b611fbb90826124ce565b38611f84565b90816020910312610285575190565b929060209267ffffffffffffffff9263ffffffff61202960405197889687967f461d276200000000000000000000000000000000000000000000000000000000885216600487015260a0602487015260a4860190610d11565b926001604486015216606484015260848301520381600073ffffffffffffffffffffffffffffffffffffffff7f0000000000000000000000000000000000000000000000000000000000000000165af19081156106ef576000916120b2575b50807f1131472297a800fee664d1d89cfa8f7676ff07189ecc53f80bbb5f4969099db8600080a290565b6120ca915060203d8111610735576107268183610359565b38612088565b604051906120dd82610321565b600c82527f636f64654c6f636174696f6e00000000000000000000000000000000000000006020830152565b7f4e487b7100000000000000000000000000000000000000000000000000000000600052602160045260246000fd5b6003111561214257565b612109565b6040519061215482610321565b600882527f6c616e67756167650000000000000000000000000000000000000000000000006020830152565b6001111561214257565b6040519061219782610321565b600682527f736f7572636500000000000000000000000000000000000000000000000000006020830152565b604051906121d082610321565b600482527f61726773000000000000000000000000000000000000000000000000000000006020830152565b6040519061220982610321565b600f82527f736563726574734c6f636174696f6e00000000000000000000000000000000006020830152565b6040519061224282610321565b600782527f73656372657473000000000000000000000000000000000000000000000000006020830152565b6040519061227b82610321565b600982527f62797465734172677300000000000000000000000000000000000000000000006020830152565b6122af61251f565b906122c16122bb6120d0565b83612c67565b6122de81516122cf81612138565b6122d881612138565b836125c1565b6122e96122bb612147565b61230360408201516122fa81612180565b6122d881612180565b61230e6122bb61218a565b61231c606082015183612c67565b60a08101805151612434575b50608081019081515161239c575b60c0915001805151612349575b50515190565b916123556122bb61226e565b61235e82612cec565b60005b83518051821015612389579061101e61237d8261238494611c97565b5185612bb1565b612361565b5050915061239681612d78565b38612343565b6020810180516123ab81612138565b6123b481612138565b1561240a5760c0926123ed612405926123d46123ce6121fc565b88612c67565b516123de81612138565b6123e781612138565b866125c1565b6123fe6123f8612235565b86612c67565b5184612bb1565b612336565b60046040517fa80d31f7000000000000000000000000000000000000000000000000000000008152fd5b926124466124406121c3565b84612c67565b61244f83612cec565b60005b8451805182101561247a579061101e61246e8261247594611c97565b5186612c67565b612452565b5050925061248782612d78565b38612328565b8151156124a4576000808252604082015260600152565b60046040517f22ce3edd000000000000000000000000000000000000000000000000000000008152fd5b8151156124db5760a00152565b60046040517ffe936cb7000000000000000000000000000000000000000000000000000000008152fd5b6040519061251282610321565b6000602083606081520152565b60405161252b81610321565b612533612505565b8082526020820160008152612546612505565b506101006020830152604051809252600082526101208201918210610285576000916040525290565b90612578612505565b50601f8116806125a7575b50806020830152604051908183526000825281016020019081106102855760405290565b6020036020811161139f57810180911161139f5738612583565b908151916125cd612505565b50825151600181019081811161139f576020850151811015612626575b60c26020610389965192830101538051821161261e575b50506040519160208301526020825261261982610321565b612bb1565b523880612601565b8160011b948286046002148315171561139f576020816126586103899861265160c29551918461256f565b5082612af5565b50965050506125ea565b908160011b918083046002149015171561139f57565b8181029291811591840414171561139f57565b612693612505565b50805151600181019081811161139f5760208301518110156126cc575b605b602084519283010153805182116126c857505090565b5290565b8160011b8281046002148315171561139f576126f5906126ee8551918661256f565b5084612af5565b506126b0565b612703612505565b50805151600181019081811161139f576020830151811015612738575b605a602084519283010153805182116126c857505090565b8160011b8281046002148315171561139f5761275a906126ee8551918661256f565b50612720565b612768612505565b50805151600181019081811161139f57602083015181101561279d575b6059602084519283010153805182116126c857505090565b8160011b8281046002148315171561139f576127bf906126ee8551918661256f565b50612785565b6127cd612505565b50805151600181019081811161139f576020830151811015612802575b6058602084519283010153805182116126c857505090565b8160011b8281046002148315171561139f57612824906126ee8551918661256f565b506127ea565b612832612505565b50805151600181019081811161139f576020830151811015612867575b607b602084519283010153805182116126c857505090565b8160011b8281046002148315171561139f57612889906126ee8551918661256f565b5061284f565b612897612505565b50805151600181019081811161139f5760208301518110156128cc575b607a602084519283010153805182116126c857505090565b8160011b8281046002148315171561139f576128ee906126ee8551918661256f565b506128b4565b6128fc612505565b50805151600181019081811161139f576020830151811015612931575b6079602084519283010153805182116126c857505090565b8160011b8281046002148315171561139f57612953906126ee8551918661256f565b50612919565b612961612505565b50805151600181019081811161139f576020830151811015612996575b6078602084519283010153805182116126c857505090565b8160011b8281046002148315171561139f576129b8906126ee8551918661256f565b5061297e565b906129c7612505565b50815151600181019182821161139f5760208401518210156129fa575b602084519283010153805182116126c857505090565b8260011b8381046002148415171561139f57612a2390612a1c8651918761256f565b5085612af5565b506129e4565b90612a368251918361256f565b50612a3f612505565b508051612a4a612505565b50612a588251821115612baa565b82515192612a668285611cd5565b926020938285809401518211612ade575b5183815197820101968211612ad6575b505001915b80821015612aae579060001991036101000a0190811990511690825116179052565b909192612aca612ac4612ad09286518152611cc7565b94611cc7565b92611cab565b90612a8c565b523880612a87565b612af0612aea83612662565b82612a29565b612a77565b90612afe612505565b50805190612b0a612505565b50612b188151831115612baa565b82515191612b268184611cd5565b6020928391828701518111612b93575b865183815197820101968211612b8b575b505001915b80821015612b6f579060001991036101000a019081199051169082511617905290565b909192612aca612ac4612b859286518152611cc7565b90612b4c565b523880612b47565b612ba5612b9f82612662565b88612a29565b612b36565b1561028557565b8151612be992919067ffffffffffffffff81169060178211612bec57612be19150604060ff8451921617906129be565b505b51612af5565b50565b5060ff8111612c1157612c0b90612c0383516127c5565b508251612f91565b50612be3565b61ffff8111612c3057612c0b90612c288351612760565b508251612f0d565b63ffffffff8111612c5157612c0b90612c4983516126fb565b508251612e89565b612c0b90612c5f835161268b565b508251612e05565b8151612be992919067ffffffffffffffff81169060178211612c9757612be19150606060ff8451921617906129be565b5060ff8111612cae57612c0b90612c038351612959565b61ffff8111612cc557612c0b90612c2883516128f4565b63ffffffff8111612cde57612c0b90612c49835161288f565b612c0b90612c5f835161282a565b805190612cf7612505565b50815151600181019081811161139f576020840151811015612d45575b609f6020809551928301015380518211612d3d575b5050018051906001820180921161139f5752565b523880612d29565b8160011b938285046002148315171561139f57602081612d6e8297612651609f9551918461256f565b5095505050612d14565b805190612d83612505565b50815151600181019081811161139f576020840151811015612dd2575b60ff6020809551928301015380518211612dca575b505001805190600019820191821161139f5752565b523880612db5565b8160011b938285046002148315171561139f57602081612dfb829761265160ff9551918461256f565b5095505050612da0565b90612e0e612505565b5081515180600801918260081161139f5760208401518311612e68575b6008845192830101907fffffffffffffffffffffffffffffffffffffffffffffffff0000000000000000825116179052805182116126c857505090565b8260011b8381046002148415171561139f57612e849085612a29565b612e2b565b90612e92612505565b5081515180600401918260041161139f5760208401518311612eec575b6004845192830101907fffffffffffffffffffffffffffffffffffffffffffffffffffffffff00000000825116179052805182116126c857505090565b8260011b8381046002148415171561139f57612f089085612a29565b612eaf565b90612f16612505565b5081515180600201918260021161139f5760208401518311612f70575b6002845192830101907fffffffffffffffffffffffffffffffffffffffffffffffffffffffffffff0000825116179052805182116126c857505090565b8260011b8381046002148415171561139f57612f8c9085612a29565b612f33565b90612f9a612505565b5081515180600101918260011161139f5760208401518311612ff4575b6001845192830101907fffffffffffffffffffffffffffffffffffffffffffffffffffffffffffffff00825116179052805182116126c857505090565b8260011b8381046002148415171561139f576130109085612a29565b612fb7565b9061301f82610398565b61302c6040519182610359565b828152601f19611da48294610398565b806000917a184f03e93ff9f4daa797ed6e38ed64bf6a1f0100000000000000008082101561317e575b506d04ee2d6d415b85acef81000000008083101561316f575b50662386f26fc1000080831015613160575b506305f5e10080831015613151575b5061271080831015613142575b506064821015613132575b600a80921015613128575b6001908160216130d3828701613015565b95860101905b6130e5575b5050505090565b600019849101917f30313233343536373839616263646566000000000000000000000000000000008282061a835304918215613123579190826130d9565b6130de565b91600101916130c2565b91906064600291049101916130b7565b600491939204910191386130ac565b6008919392049101913861309f565b60109193920491019138613090565b6020919392049101913861307e565b604093508104915038613065565b601f8111613198575050565b600090600f82527f8d1108e10bcb7c27dddfc02ed9d693a074039d026cf4ea4240b40f7d581ac802906020601f850160051c830194106131f3575b601f0160051c01915b8281106131e857505050565b8181556001016131dc565b90925082906131d3565b601f8111613209575050565b600090601082527f1b6847dc741a1b0cd08d278845f9d819d87b734759afb55fe2de5cb82a9ae672906020601f850160051c83019410613264575b601f0160051c01915b82811061325957505050565b81815560010161324d565b9092508290613244565b90815167ffffffffffffffff8111610300576132948161328f600f54610bc1565b61318c565b602080601f83116001146132cf57508192936000926132c4575b50506000198260011b9260031b1c191617600f55565b0151905038806132ae565b90601f19831694613302600f6000527f8d1108e10bcb7c27dddfc02ed9d693a074039d026cf4ea4240b40f7d581ac80290565b926000905b87821061333f575050836001959610613326575b505050811b01600f55565b015160001960f88460031b161c1916905538808061331b565b80600185968294968601518155019501930190613307565b90815167ffffffffffffffff81116103005761337d81613378601054610bc1565b6131fd565b602080601f83116001146133b857508192936000926133ad575b50506000198260011b9260031b1c191617601055565b015190503880613397565b90601f198316946133eb60106000527f1b6847dc741a1b0cd08d278845f9d819d87b734759afb55fe2de5cb82a9ae67290565b926000905b87821061342857505083600195961061340f575b505050811b01601055565b015160001960f88460031b161c19169055388080613404565b806001859682949686015181550195019301906133f0565b6040519061344d82610321565b600182527f30000000000000000000000000000000000000000000000000000000000000006020830152565b90816020910312610285575180151581036102855790565b1561349857565b60646040517f08c379a000000000000000000000000000000000000000000000000000000000815260206004820152601260248201527f696e646578206f7574206f6620626f756e6400000000000000000000000000006044820152fd5b7f4e487b7100000000000000000000000000000000000000000000000000000000600052603160045260246000fd5b600654801561354e576000190161353b81611177565b611d505760018160008093550155600655565b6134f6565b9060069161356383548210613491565b8254600019810190811161139f578110156136095760019081810180821161139f5761358e90611177565b509161359982611177565b919091611d5057836135b49483036135b9575b505050611c6b565b613563565b805483547fffffffffffffffffffffffff00000000000000000000000000000000000000001673ffffffffffffffffffffffffffffffffffffffff919091161783558101549101553880806135ac565b509050610389613525565b600854801561354e576000190161362a8161187e565b611d505760028160008093558260018201550155600855565b9060089161365383548210613491565b8254600019810190811161139f578110156137435760019081810180821161139f5761367e9061187e565b50916136898261187e565b611d5057836136a09482036136a557505050611c6b565b613653565b805482547fffffffffffffffffffffffff00000000000000000000000000000000000000001673ffffffffffffffffffffffffffffffffffffffff91821617835561373b9380830154908401556002809201541691019073ffffffffffffffffffffffffffffffffffffffff167fffffffffffffffffffffffff0000000000000000000000000000000000000000825416179055565b3880806135ac565b50905061038961361456fea26469706673582212203b48eac9622416fd8dcd24b1280e1c7bcf1d1380b8f5c259da036d5b8fcecfda64736f6c63430008140033",
  "devdoc": {
    "errors": {
      "OwnableInvalidOwner(address)": [
        {
          "details": "The owner is not a valid owner account. (eg. `address(0)`)"
        }
      ],
      "OwnableUnauthorizedAccount(address)": [
        {
          "details": "The caller account is not authorized to perform an operation."
        }
      ]
    },
    "kind": "dev",
    "methods": {
      "handleOracleFulfillment(bytes32,bytes,bytes)": {
        "details": "Either response or error parameter will be set, but never both.",
        "params": {
          "err": "Aggregated error either from the request's source code or from the execution pipeline.",
          "requestId": "The requestId returned by FunctionsClient.sendRequest().",
          "response": "Aggregated response from the request's source code."
        }
      },
      "owner()": {
        "details": "Returns the address of the current owner."
      },
      "renounceOwnership()": {
        "details": "Leaves the contract without owner. It will not be possible to call `onlyOwner` functions. Can only be called by the current owner. NOTE: Renouncing ownership will leave the contract without an owner, thereby disabling any functionality that is only available to the owner."
      },
      "transferOwnership(address)": {
        "details": "Transfers ownership of the contract to a new account (`newOwner`). Can only be called by the current owner."
      }
    },
    "version": 1
  },
  "userdoc": {
    "kind": "user",
    "methods": {
      "handleOracleFulfillment(bytes32,bytes,bytes)": {
        "notice": "Chainlink Functions response handler called by the Functions Router during fullilment from the designated transmitter node in an OCR round."
      }
    },
    "version": 1
  },
  "storageLayout": {
    "storage": [
      {
        "astId": 2311,
        "contract": "contracts/Testament.sol:Testament",
        "label": "_owner",
        "offset": 0,
        "slot": "0",
        "type": "t_address"
      },
      {
        "astId": 5912,
        "contract": "contracts/Testament.sol:Testament",
        "label": "isAlive",
        "offset": 20,
        "slot": "0",
        "type": "t_bool"
      },
      {
        "astId": 5914,
        "contract": "contracts/Testament.sol:Testament",
        "label": "latestTimestamp",
        "offset": 0,
        "slot": "1",
        "type": "t_uint256"
      },
      {
        "astId": 5917,
        "contract": "contracts/Testament.sol:Testament",
        "label": "timeInterval",
        "offset": 0,
        "slot": "2",
        "type": "t_uint256"
      },
      {
        "astId": 5920,
        "contract": "contracts/Testament.sol:Testament",
        "label": "inheritableTokens",
        "offset": 0,
        "slot": "3",
        "type": "t_array(t_address)dyn_storage"
      },
      {
        "astId": 5924,
        "contract": "contracts/Testament.sol:Testament",
        "label": "shares",
        "offset": 0,
        "slot": "4",
        "type": "t_mapping(t_address,t_uint256)"
      },
      {
        "astId": 5926,
        "contract": "contracts/Testament.sol:Testament",
        "label": "totalShares",
        "offset": 0,
        "slot": "5",
        "type": "t_uint256"
      },
      {
        "astId": 5930,
        "contract": "contracts/Testament.sol:Testament",
        "label": "erc20Heirs",
        "offset": 0,
        "slot": "6",
        "type": "t_array(t_struct(ERC20Heir)5900_storage)dyn_storage"
      },
      {
        "astId": 5936,
        "contract": "contracts/Testament.sol:Testament",
        "label": "erc721Inheritances",
        "offset": 0,
        "slot": "7",
        "type": "t_mapping(t_address,t_mapping(t_uint256,t_address))"
      },
      {
        "astId": 5940,
        "contract": "contracts/Testament.sol:Testament",
        "label": "erc721Heirs",
        "offset": 0,
        "slot": "8",
        "type": "t_array(t_struct(ERC721Heir)5907_storage)dyn_storage"
      },
      {
        "astId": 5942,
        "contract": "contracts/Testament.sol:Testament",
        "label": "functionsRouter",
        "offset": 0,
        "slot": "9",
        "type": "t_address"
      },
      {
        "astId": 5945,
        "contract": "contracts/Testament.sol:Testament",
        "label": "source",
        "offset": 0,
        "slot": "10",
        "type": "t_string_storage"
      },
      {
        "astId": 5947,
        "contract": "contracts/Testament.sol:Testament",
        "label": "subscriptionId",
        "offset": 0,
        "slot": "11",
        "type": "t_uint64"
      },
      {
        "astId": 5949,
        "contract": "contracts/Testament.sol:Testament",
        "label": "gasLimit",
        "offset": 8,
        "slot": "11",
        "type": "t_uint32"
      },
      {
        "astId": 5951,
        "contract": "contracts/Testament.sol:Testament",
        "label": "donID",
        "offset": 0,
        "slot": "12",
        "type": "t_bytes32"
      },
      {
        "astId": 5953,
        "contract": "contracts/Testament.sol:Testament",
        "label": "requestCounter",
        "offset": 0,
        "slot": "13",
        "type": "t_uint256"
      },
      {
        "astId": 5955,
        "contract": "contracts/Testament.sol:Testament",
        "label": "lastRequestId",
        "offset": 0,
        "slot": "14",
        "type": "t_bytes32"
      },
      {
        "astId": 5957,
        "contract": "contracts/Testament.sol:Testament",
        "label": "lastResponse",
        "offset": 0,
        "slot": "15",
        "type": "t_string_storage"
      },
      {
        "astId": 5959,
        "contract": "contracts/Testament.sol:Testament",
        "label": "lastError",
        "offset": 0,
        "slot": "16",
        "type": "t_string_storage"
      }
    ],
    "types": {
      "t_address": {
        "encoding": "inplace",
        "label": "address",
        "numberOfBytes": "20"
      },
      "t_array(t_address)dyn_storage": {
        "base": "t_address",
        "encoding": "dynamic_array",
        "label": "address[]",
        "numberOfBytes": "32"
      },
      "t_array(t_struct(ERC20Heir)5900_storage)dyn_storage": {
        "base": "t_struct(ERC20Heir)5900_storage",
        "encoding": "dynamic_array",
        "label": "struct Testament.ERC20Heir[]",
        "numberOfBytes": "32"
      },
      "t_array(t_struct(ERC721Heir)5907_storage)dyn_storage": {
        "base": "t_struct(ERC721Heir)5907_storage",
        "encoding": "dynamic_array",
        "label": "struct Testament.ERC721Heir[]",
        "numberOfBytes": "32"
      },
      "t_bool": {
        "encoding": "inplace",
        "label": "bool",
        "numberOfBytes": "1"
      },
      "t_bytes32": {
        "encoding": "inplace",
        "label": "bytes32",
        "numberOfBytes": "32"
      },
      "t_mapping(t_address,t_mapping(t_uint256,t_address))": {
        "encoding": "mapping",
        "key": "t_address",
        "label": "mapping(address => mapping(uint256 => address))",
        "numberOfBytes": "32",
        "value": "t_mapping(t_uint256,t_address)"
      },
      "t_mapping(t_address,t_uint256)": {
        "encoding": "mapping",
        "key": "t_address",
        "label": "mapping(address => uint256)",
        "numberOfBytes": "32",
        "value": "t_uint256"
      },
      "t_mapping(t_uint256,t_address)": {
        "encoding": "mapping",
        "key": "t_uint256",
        "label": "mapping(uint256 => address)",
        "numberOfBytes": "32",
        "value": "t_address"
      },
      "t_string_storage": {
        "encoding": "bytes",
        "label": "string",
        "numberOfBytes": "32"
      },
      "t_struct(ERC20Heir)5900_storage": {
        "encoding": "inplace",
        "label": "struct Testament.ERC20Heir",
        "members": [
          {
            "astId": 5897,
            "contract": "contracts/Testament.sol:Testament",
            "label": "heir",
            "offset": 0,
            "slot": "0",
            "type": "t_address"
          },
          {
            "astId": 5899,
            "contract": "contracts/Testament.sol:Testament",
            "label": "share",
            "offset": 0,
            "slot": "1",
            "type": "t_uint256"
          }
        ],
        "numberOfBytes": "64"
      },
      "t_struct(ERC721Heir)5907_storage": {
        "encoding": "inplace",
        "label": "struct Testament.ERC721Heir",
        "members": [
          {
            "astId": 5902,
            "contract": "contracts/Testament.sol:Testament",
            "label": "nft",
            "offset": 0,
            "slot": "0",
            "type": "t_address"
          },
          {
            "astId": 5904,
            "contract": "contracts/Testament.sol:Testament",
            "label": "tokenId",
            "offset": 0,
            "slot": "1",
            "type": "t_uint256"
          },
          {
            "astId": 5906,
            "contract": "contracts/Testament.sol:Testament",
            "label": "heir",
            "offset": 0,
            "slot": "2",
            "type": "t_address"
          }
        ],
        "numberOfBytes": "96"
      },
      "t_uint256": {
        "encoding": "inplace",
        "label": "uint256",
        "numberOfBytes": "32"
      },
      "t_uint32": {
        "encoding": "inplace",
        "label": "uint32",
        "numberOfBytes": "4"
      },
      "t_uint64": {
        "encoding": "inplace",
        "label": "uint64",
        "numberOfBytes": "8"
      }
    }
  }
}